{
  "contractName": "KycContract",
  "abi": [
    {
      "anonymous": false,
      "inputs": [
        {
          "indexed": true,
          "internalType": "address",
          "name": "previousOwner",
          "type": "address"
        },
        {
          "indexed": true,
          "internalType": "address",
          "name": "newOwner",
          "type": "address"
        }
      ],
      "name": "OwnershipTransferred",
      "type": "event"
    },
    {
      "anonymous": false,
      "inputs": [
        {
          "indexed": false,
          "internalType": "address",
          "name": "_account",
          "type": "address"
        },
        {
          "indexed": false,
          "internalType": "uint256",
          "name": "_tokensLeft",
          "type": "uint256"
        },
        {
          "indexed": false,
          "internalType": "bool",
          "name": "eligable",
          "type": "bool"
        }
      ],
      "name": "WL_Tokens_left",
      "type": "event"
    },
    {
      "inputs": [],
      "name": "owner",
      "outputs": [
        {
          "internalType": "address",
          "name": "",
          "type": "address"
        }
      ],
      "stateMutability": "view",
      "type": "function",
      "constant": true
    },
    {
      "inputs": [],
      "name": "renounceOwnership",
      "outputs": [],
      "stateMutability": "nonpayable",
      "type": "function"
    },
    {
      "inputs": [
        {
          "internalType": "address",
          "name": "newOwner",
          "type": "address"
        }
      ],
      "name": "transferOwnership",
      "outputs": [],
      "stateMutability": "nonpayable",
      "type": "function"
    },
    {
      "inputs": [
        {
          "internalType": "address",
          "name": "_addr",
          "type": "address"
        },
        {
          "internalType": "uint256",
          "name": "_ammt",
          "type": "uint256"
        }
      ],
      "name": "setKYCCompleted",
      "outputs": [],
      "stateMutability": "nonpayable",
      "type": "function"
    },
    {
      "inputs": [
        {
          "internalType": "address",
          "name": "_addr",
          "type": "address"
        }
      ],
      "name": "setKYCRevoked",
      "outputs": [],
      "stateMutability": "nonpayable",
      "type": "function"
    },
    {
      "inputs": [
        {
          "internalType": "address",
          "name": "_addr",
          "type": "address"
        },
        {
          "internalType": "uint256",
          "name": "_ammt",
          "type": "uint256"
        }
      ],
      "name": "whiteListDeduction",
      "outputs": [],
      "stateMutability": "nonpayable",
      "type": "function"
    },
    {
      "inputs": [
        {
          "internalType": "address",
          "name": "_addr",
          "type": "address"
        }
      ],
      "name": "CheckKYC",
      "outputs": [
        {
          "internalType": "bool",
          "name": "",
          "type": "bool"
        }
      ],
      "stateMutability": "view",
      "type": "function",
      "constant": true
    },
    {
      "inputs": [
        {
          "internalType": "address",
          "name": "_addr",
          "type": "address"
        }
      ],
      "name": "checkWhiteListAmmount",
      "outputs": [
        {
          "internalType": "uint256",
          "name": "",
          "type": "uint256"
        }
      ],
      "stateMutability": "view",
      "type": "function",
      "constant": true
    }
  ],
  "bytecode": "0x608060405234801561001057600080fd5b5061002d61002261003260201b60201c565b61003a60201b60201c565b6100fe565b600033905090565b60008060009054906101000a900473ffffffffffffffffffffffffffffffffffffffff169050816000806101000a81548173ffffffffffffffffffffffffffffffffffffffff021916908373ffffffffffffffffffffffffffffffffffffffff1602179055508173ffffffffffffffffffffffffffffffffffffffff168173ffffffffffffffffffffffffffffffffffffffff167f8be0079c531659141344cd1fd0a4f28419497f9722a3daafe3b4186f6b6457e060405160405180910390a35050565b610ee28061010d6000396000f3fe608060405234801561001057600080fd5b50600436106100885760003560e01c80638da5cb5b1161005b5780638da5cb5b146100ff5780639b62cb051461011d578063e29725c514610139578063f2fde38b1461016957610088565b806317a2f6e31461008d578063215b1638146100a9578063715018a6146100c557806373a2f032146100cf575b600080fd5b6100a760048036038101906100a29190610b3a565b610185565b005b6100c360048036038101906100be9190610b7a565b61040a565b005b6100cd610562565b005b6100e960048036038101906100e49190610b7a565b6105ea565b6040516100f69190610bb6565b60405180910390f35b610107610633565b6040516101149190610be0565b60405180910390f35b61013760048036038101906101329190610b3a565b61065c565b005b610153600480360381019061014e9190610b7a565b610887565b6040516101609190610c16565b60405180910390f35b610183600480360381019061017e9190610b7a565b6108dd565b005b600081600260008573ffffffffffffffffffffffffffffffffffffffff1673ffffffffffffffffffffffffffffffffffffffff168152602001908152602001600020546101d29190610c60565b905080600260008573ffffffffffffffffffffffffffffffffffffffff1673ffffffffffffffffffffffffffffffffffffffff168152602001908152602001600020819055506000600260008573ffffffffffffffffffffffffffffffffffffffff1673ffffffffffffffffffffffffffffffffffffffff16815260200190815260200160002054141561033e576000600160008573ffffffffffffffffffffffffffffffffffffffff1673ffffffffffffffffffffffffffffffffffffffff16815260200190815260200160002060006101000a81548160ff0219169083151502179055506000600260008573ffffffffffffffffffffffffffffffffffffffff1673ffffffffffffffffffffffffffffffffffffffff168152602001908152602001600020819055507f2a4adfea35abcfc9b76b1a50c3b87f77b4631772a9db3a2da66235296d2b04c78360008060405161033193929190610cd9565b60405180910390a1610405565b7f2a4adfea35abcfc9b76b1a50c3b87f77b4631772a9db3a2da66235296d2b04c783600260008673ffffffffffffffffffffffffffffffffffffffff1673ffffffffffffffffffffffffffffffffffffffff16815260200190815260200160002054600160008773ffffffffffffffffffffffffffffffffffffffff1673ffffffffffffffffffffffffffffffffffffffff16815260200190815260200160002060009054906101000a900460ff166040516103fc93929190610d10565b60405180910390a15b505050565b6104126109d5565b73ffffffffffffffffffffffffffffffffffffffff16610430610633565b73ffffffffffffffffffffffffffffffffffffffff1614610486576040517f08c379a000000000000000000000000000000000000000000000000000000000815260040161047d90610da4565b60405180910390fd5b6000600160008373ffffffffffffffffffffffffffffffffffffffff1673ffffffffffffffffffffffffffffffffffffffff16815260200190815260200160002060006101000a81548160ff0219169083151502179055506000600260008373ffffffffffffffffffffffffffffffffffffffff1673ffffffffffffffffffffffffffffffffffffffff168152602001908152602001600020819055507f2a4adfea35abcfc9b76b1a50c3b87f77b4631772a9db3a2da66235296d2b04c78160008060405161055793929190610cd9565b60405180910390a150565b61056a6109d5565b73ffffffffffffffffffffffffffffffffffffffff16610588610633565b73ffffffffffffffffffffffffffffffffffffffff16146105de576040517f08c379a00000000000000000000000000000000000000000000000000000000081526004016105d590610da4565b60405180910390fd5b6105e860006109dd565b565b6000600260008373ffffffffffffffffffffffffffffffffffffffff1673ffffffffffffffffffffffffffffffffffffffff168152602001908152602001600020549050919050565b60008060009054906101000a900473ffffffffffffffffffffffffffffffffffffffff16905090565b6106646109d5565b73ffffffffffffffffffffffffffffffffffffffff16610682610633565b73ffffffffffffffffffffffffffffffffffffffff16146106d8576040517f08c379a00000000000000000000000000000000000000000000000000000000081526004016106cf90610da4565b60405180910390fd5b60018060008473ffffffffffffffffffffffffffffffffffffffff1673ffffffffffffffffffffffffffffffffffffffff16815260200190815260200160002060006101000a81548160ff02191690831515021790555080600260008473ffffffffffffffffffffffffffffffffffffffff1673ffffffffffffffffffffffffffffffffffffffff1681526020019081526020016000205461077a9190610dc4565b600260008473ffffffffffffffffffffffffffffffffffffffff1673ffffffffffffffffffffffffffffffffffffffff168152602001908152602001600020819055507f2a4adfea35abcfc9b76b1a50c3b87f77b4631772a9db3a2da66235296d2b04c782600260008573ffffffffffffffffffffffffffffffffffffffff1673ffffffffffffffffffffffffffffffffffffffff16815260200190815260200160002054600160008673ffffffffffffffffffffffffffffffffffffffff1673ffffffffffffffffffffffffffffffffffffffff16815260200190815260200160002060009054906101000a900460ff1660405161087b93929190610d10565b60405180910390a15050565b6000600160008373ffffffffffffffffffffffffffffffffffffffff1673ffffffffffffffffffffffffffffffffffffffff16815260200190815260200160002060009054906101000a900460ff169050919050565b6108e56109d5565b73ffffffffffffffffffffffffffffffffffffffff16610903610633565b73ffffffffffffffffffffffffffffffffffffffff1614610959576040517f08c379a000000000000000000000000000000000000000000000000000000000815260040161095090610da4565b60405180910390fd5b600073ffffffffffffffffffffffffffffffffffffffff168173ffffffffffffffffffffffffffffffffffffffff1614156109c9576040517f08c379a00000000000000000000000000000000000000000000000000000000081526004016109c090610e8c565b60405180910390fd5b6109d2816109dd565b50565b600033905090565b60008060009054906101000a900473ffffffffffffffffffffffffffffffffffffffff169050816000806101000a81548173ffffffffffffffffffffffffffffffffffffffff021916908373ffffffffffffffffffffffffffffffffffffffff1602179055508173ffffffffffffffffffffffffffffffffffffffff168173ffffffffffffffffffffffffffffffffffffffff167f8be0079c531659141344cd1fd0a4f28419497f9722a3daafe3b4186f6b6457e060405160405180910390a35050565b600080fd5b600073ffffffffffffffffffffffffffffffffffffffff82169050919050565b6000610ad182610aa6565b9050919050565b610ae181610ac6565b8114610aec57600080fd5b50565b600081359050610afe81610ad8565b92915050565b6000819050919050565b610b1781610b04565b8114610b2257600080fd5b50565b600081359050610b3481610b0e565b92915050565b60008060408385031215610b5157610b50610aa1565b5b6000610b5f85828601610aef565b9250506020610b7085828601610b25565b9150509250929050565b600060208284031215610b9057610b8f610aa1565b5b6000610b9e84828501610aef565b91505092915050565b610bb081610b04565b82525050565b6000602082019050610bcb6000830184610ba7565b92915050565b610bda81610ac6565b82525050565b6000602082019050610bf56000830184610bd1565b92915050565b60008115159050919050565b610c1081610bfb565b82525050565b6000602082019050610c2b6000830184610c07565b92915050565b7f4e487b7100000000000000000000000000000000000000000000000000000000600052601160045260246000fd5b6000610c6b82610b04565b9150610c7683610b04565b925082821015610c8957610c88610c31565b5b828203905092915050565b6000819050919050565b6000819050919050565b6000610cc3610cbe610cb984610c94565b610c9e565b610b04565b9050919050565b610cd381610ca8565b82525050565b6000606082019050610cee6000830186610bd1565b610cfb6020830185610cca565b610d086040830184610c07565b949350505050565b6000606082019050610d256000830186610bd1565b610d326020830185610ba7565b610d3f6040830184610c07565b949350505050565b600082825260208201905092915050565b7f4f776e61626c653a2063616c6c6572206973206e6f7420746865206f776e6572600082015250565b6000610d8e602083610d47565b9150610d9982610d58565b602082019050919050565b60006020820190508181036000830152610dbd81610d81565b9050919050565b6000610dcf82610b04565b9150610dda83610b04565b9250827fffffffffffffffffffffffffffffffffffffffffffffffffffffffffffffffff03821115610e0f57610e0e610c31565b5b828201905092915050565b7f4f776e61626c653a206e6577206f776e657220697320746865207a65726f206160008201527f6464726573730000000000000000000000000000000000000000000000000000602082015250565b6000610e76602683610d47565b9150610e8182610e1a565b604082019050919050565b60006020820190508181036000830152610ea581610e69565b905091905056fea2646970667358221220feaaebf782fca7f6cbf972d33039ea6a74eb01bf2d81fa9b8dd51db72ec7a45d64736f6c634300080b0033",
  "immutableReferences": {},
  "source": "// SPDX-License-Identifier: GPL-3.0\r\npragma solidity ^0.8.0;\r\nimport \"@openzeppelin/contracts/access/Ownable.sol\";\r\n\r\ncontract KycContract is Ownable {\r\n    mapping(address => bool) allowed;\r\n    mapping(address => uint256) whiteListAmmount;\r\n\r\n    event WL_Tokens_left(address _account, uint256 _tokensLeft, bool eligable);\r\n\r\n    function setKYCCompleted(address _addr, uint256 _ammt) public onlyOwner {\r\n        allowed[_addr] = true;\r\n        whiteListAmmount[_addr] = whiteListAmmount[_addr] + _ammt;\r\n        emit WL_Tokens_left(_addr, whiteListAmmount[_addr], allowed[_addr]);\r\n    }\r\n\r\n    function setKYCRevoked(address _addr) public onlyOwner {\r\n        allowed[_addr] = false;\r\n        whiteListAmmount[_addr] = 0;\r\n        emit WL_Tokens_left(_addr, 0, false);\r\n    }\r\n\r\n    function whiteListDeduction(address _addr, uint256 _ammt) external {\r\n        uint256 token_avl = whiteListAmmount[_addr] - _ammt;\r\n        whiteListAmmount[_addr] = token_avl;\r\n        if (whiteListAmmount[_addr] == 0) {\r\n            allowed[_addr] = false;\r\n            whiteListAmmount[_addr] = 0;\r\n            emit WL_Tokens_left(_addr, 0, false);\r\n        } else {\r\n            emit WL_Tokens_left(_addr, whiteListAmmount[_addr], allowed[_addr]);\r\n        }\r\n    }\r\n\r\n    function CheckKYC(address _addr) public view returns (bool) {\r\n        return allowed[_addr];\r\n    }\r\n\r\n    function checkWhiteListAmmount(address _addr)\r\n        public\r\n        view\r\n        returns (uint256)\r\n    {\r\n        return whiteListAmmount[_addr];\r\n    }\r\n}\r\n",
  "sourcePath": "C:\\Users\\Admin\\Desktop\\coding projects\\Solidity\\U_Token\\contracts\\KycContract.sol",
  "compiler": {
    "name": "solc",
    "version": "0.8.11+commit.d7f03943.Emscripten.clang"
  },
  "schemaVersion": "3.4.3",
  "updatedAt": "2022-01-12T19:16:33.503Z",
  "networkType": "ethereum",
  "devdoc": {
    "kind": "dev",
    "methods": {
      "owner()": {
        "details": "Returns the address of the current owner."
      },
      "renounceOwnership()": {
        "details": "Leaves the contract without owner. It will not be possible to call `onlyOwner` functions anymore. Can only be called by the current owner. NOTE: Renouncing ownership will leave the contract without an owner, thereby removing any functionality that is only available to the owner."
      },
      "transferOwnership(address)": {
        "details": "Transfers ownership of the contract to a new account (`newOwner`). Can only be called by the current owner."
      }
    },
    "version": 1
  },
  "userdoc": {
    "kind": "user",
    "methods": {},
    "version": 1
  }
}